{
  "_format": "hh-sol-artifact-1",
  "contractName": "AirToken",
  "sourceName": "contracts/AirToken.sol",
  "abi": [
    {
      "inputs": [
        {
          "internalType": "bytes32",
          "name": "_root",
          "type": "bytes32"
        }
      ],
      "stateMutability": "nonpayable",
      "type": "constructor"
    },
    {
      "anonymous": false,
      "inputs": [
        {
          "indexed": true,
          "internalType": "address",
          "name": "owner",
          "type": "address"
        },
        {
          "indexed": true,
          "internalType": "address",
          "name": "spender",
          "type": "address"
        },
        {
          "indexed": false,
          "internalType": "uint256",
          "name": "value",
          "type": "uint256"
        }
      ],
      "name": "Approval",
      "type": "event"
    },
    {
      "anonymous": false,
      "inputs": [
        {
          "indexed": true,
          "internalType": "address",
          "name": "from",
          "type": "address"
        },
        {
          "indexed": true,
          "internalType": "address",
          "name": "to",
          "type": "address"
        },
        {
          "indexed": false,
          "internalType": "uint256",
          "name": "value",
          "type": "uint256"
        }
      ],
      "name": "Transfer",
      "type": "event"
    },
    {
      "inputs": [
        {
          "internalType": "address",
          "name": "",
          "type": "address"
        }
      ],
      "name": "_claimed",
      "outputs": [
        {
          "internalType": "bool",
          "name": "",
          "type": "bool"
        }
      ],
      "stateMutability": "view",
      "type": "function"
    },
    {
      "inputs": [
        {
          "internalType": "address",
          "name": "owner",
          "type": "address"
        },
        {
          "internalType": "address",
          "name": "spender",
          "type": "address"
        }
      ],
      "name": "allowance",
      "outputs": [
        {
          "internalType": "uint256",
          "name": "",
          "type": "uint256"
        }
      ],
      "stateMutability": "view",
      "type": "function"
    },
    {
      "inputs": [
        {
          "internalType": "address",
          "name": "spender",
          "type": "address"
        },
        {
          "internalType": "uint256",
          "name": "amount",
          "type": "uint256"
        }
      ],
      "name": "approve",
      "outputs": [
        {
          "internalType": "bool",
          "name": "",
          "type": "bool"
        }
      ],
      "stateMutability": "nonpayable",
      "type": "function"
    },
    {
      "inputs": [
        {
          "internalType": "address",
          "name": "account",
          "type": "address"
        }
      ],
      "name": "balanceOf",
      "outputs": [
        {
          "internalType": "uint256",
          "name": "",
          "type": "uint256"
        }
      ],
      "stateMutability": "view",
      "type": "function"
    },
    {
      "inputs": [
        {
          "internalType": "address",
          "name": "_claimer",
          "type": "address"
        },
        {
          "internalType": "bytes32",
          "name": "leaf",
          "type": "bytes32"
        },
        {
          "internalType": "bytes32[]",
          "name": "proof",
          "type": "bytes32[]"
        }
      ],
      "name": "claim",
      "outputs": [],
      "stateMutability": "nonpayable",
      "type": "function"
    },
    {
      "inputs": [],
      "name": "decimals",
      "outputs": [
        {
          "internalType": "uint8",
          "name": "",
          "type": "uint8"
        }
      ],
      "stateMutability": "view",
      "type": "function"
    },
    {
      "inputs": [
        {
          "internalType": "address",
          "name": "spender",
          "type": "address"
        },
        {
          "internalType": "uint256",
          "name": "subtractedValue",
          "type": "uint256"
        }
      ],
      "name": "decreaseAllowance",
      "outputs": [
        {
          "internalType": "bool",
          "name": "",
          "type": "bool"
        }
      ],
      "stateMutability": "nonpayable",
      "type": "function"
    },
    {
      "inputs": [
        {
          "internalType": "address",
          "name": "spender",
          "type": "address"
        },
        {
          "internalType": "uint256",
          "name": "addedValue",
          "type": "uint256"
        }
      ],
      "name": "increaseAllowance",
      "outputs": [
        {
          "internalType": "bool",
          "name": "",
          "type": "bool"
        }
      ],
      "stateMutability": "nonpayable",
      "type": "function"
    },
    {
      "inputs": [
        {
          "internalType": "address",
          "name": "to",
          "type": "address"
        },
        {
          "internalType": "uint256",
          "name": "amount",
          "type": "uint256"
        }
      ],
      "name": "mint",
      "outputs": [],
      "stateMutability": "nonpayable",
      "type": "function"
    },
    {
      "inputs": [],
      "name": "name",
      "outputs": [
        {
          "internalType": "string",
          "name": "",
          "type": "string"
        }
      ],
      "stateMutability": "view",
      "type": "function"
    },
    {
      "inputs": [],
      "name": "symbol",
      "outputs": [
        {
          "internalType": "string",
          "name": "",
          "type": "string"
        }
      ],
      "stateMutability": "view",
      "type": "function"
    },
    {
      "inputs": [],
      "name": "totalSupply",
      "outputs": [
        {
          "internalType": "uint256",
          "name": "",
          "type": "uint256"
        }
      ],
      "stateMutability": "view",
      "type": "function"
    },
    {
      "inputs": [
        {
          "internalType": "address",
          "name": "to",
          "type": "address"
        },
        {
          "internalType": "uint256",
          "name": "amount",
          "type": "uint256"
        }
      ],
      "name": "transfer",
      "outputs": [
        {
          "internalType": "bool",
          "name": "",
          "type": "bool"
        }
      ],
      "stateMutability": "nonpayable",
      "type": "function"
    },
    {
      "inputs": [
        {
          "internalType": "address",
          "name": "from",
          "type": "address"
        },
        {
          "internalType": "address",
          "name": "to",
          "type": "address"
        },
        {
          "internalType": "uint256",
          "name": "amount",
          "type": "uint256"
        }
      ],
      "name": "transferFrom",
      "outputs": [
        {
          "internalType": "bool",
          "name": "",
          "type": "bool"
        }
      ],
      "stateMutability": "nonpayable",
      "type": "function"
    }
  ],
  "bytecode": "0x60806040523480156200001157600080fd5b506040516200237638038062002376833981810160405281019062000037919062000402565b6040518060400160405280600881526020017f416972546f6b656e0000000000000000000000000000000000000000000000008152506040518060400160405280600381526020017f41544b00000000000000000000000000000000000000000000000000000000008152508160039080519060200190620000bb92919062000312565b508060049080519060200190620000d492919062000312565b5050508060068190555033600560006101000a81548173ffffffffffffffffffffffffffffffffffffffff021916908373ffffffffffffffffffffffffffffffffffffffff1602179055506200017f600560009054906101000a900473ffffffffffffffffffffffffffffffffffffffff16620001566200018660201b60201c565b600a620001649190620005ce565b61c3506200017391906200061f565b6200018f60201b60201c565b50620007f3565b60006012905090565b600073ffffffffffffffffffffffffffffffffffffffff168273ffffffffffffffffffffffffffffffffffffffff16141562000202576040517f08c379a0000000000000000000000000000000000000000000000000000000008152600401620001f990620006e1565b60405180910390fd5b62000216600083836200030860201b60201c565b80600260008282546200022a919062000703565b92505081905550806000808473ffffffffffffffffffffffffffffffffffffffff1673ffffffffffffffffffffffffffffffffffffffff168152602001908152602001600020600082825462000281919062000703565b925050819055508173ffffffffffffffffffffffffffffffffffffffff16600073ffffffffffffffffffffffffffffffffffffffff167fddf252ad1be2c89b69c2b068fc378daa952ba7f163c4a11628f55a4df523b3ef83604051620002e8919062000771565b60405180910390a362000304600083836200030d60201b60201c565b5050565b505050565b505050565b8280546200032090620007bd565b90600052602060002090601f01602090048101928262000344576000855562000390565b82601f106200035f57805160ff191683800117855562000390565b8280016001018555821562000390579182015b828111156200038f57825182559160200191906001019062000372565b5b5090506200039f9190620003a3565b5090565b5b80821115620003be576000816000905550600101620003a4565b5090565b600080fd5b6000819050919050565b620003dc81620003c7565b8114620003e857600080fd5b50565b600081519050620003fc81620003d1565b92915050565b6000602082840312156200041b576200041a620003c2565b5b60006200042b84828501620003eb565b91505092915050565b7f4e487b7100000000000000000000000000000000000000000000000000000000600052601160045260246000fd5b60008160011c9050919050565b6000808291508390505b6001851115620004c2578086048111156200049a576200049962000434565b5b6001851615620004aa5780820291505b8081029050620004ba8562000463565b94506200047a565b94509492505050565b600082620004dd5760019050620005b0565b81620004ed5760009050620005b0565b8160018114620005065760028114620005115762000547565b6001915050620005b0565b60ff84111562000526576200052562000434565b5b8360020a91508482111562000540576200053f62000434565b5b50620005b0565b5060208310610133831016604e8410600b8410161715620005815782820a9050838111156200057b576200057a62000434565b5b620005b0565b62000590848484600162000470565b92509050818404811115620005aa57620005a962000434565b5b81810290505b9392505050565b6000819050919050565b600060ff82169050919050565b6000620005db82620005b7565b9150620005e883620005c1565b9250620006177fffffffffffffffffffffffffffffffffffffffffffffffffffffffffffffffff8484620004cb565b905092915050565b60006200062c82620005b7565b91506200063983620005b7565b9250817fffffffffffffffffffffffffffffffffffffffffffffffffffffffffffffffff048311821515161562000675576200067462000434565b5b828202905092915050565b600082825260208201905092915050565b7f45524332303a206d696e7420746f20746865207a65726f206164647265737300600082015250565b6000620006c9601f8362000680565b9150620006d68262000691565b602082019050919050565b60006020820190508181036000830152620006fc81620006ba565b9050919050565b60006200071082620005b7565b91506200071d83620005b7565b9250827fffffffffffffffffffffffffffffffffffffffffffffffffffffffffffffffff0382111562000755576200075462000434565b5b828201905092915050565b6200076b81620005b7565b82525050565b600060208201905062000788600083018462000760565b92915050565b7f4e487b7100000000000000000000000000000000000000000000000000000000600052602260045260246000fd5b60006002820490506001821680620007d657607f821691505b60208210811415620007ed57620007ec6200078e565b5b50919050565b611b7380620008036000396000f3fe608060405234801561001057600080fd5b50600436106100ea5760003560e01c806370a082311161008c578063a9059cbb11610066578063a9059cbb14610273578063b7e294ff146102a3578063dd62ed3e146102bf578063dd896a1c146102ef576100ea565b806370a08231146101f557806395d89b4114610225578063a457c2d714610243576100ea565b806323b872dd116100c857806323b872dd1461015b578063313ce5671461018b57806339509351146101a957806340c10f19146101d9576100ea565b806306fdde03146100ef578063095ea7b31461010d57806318160ddd1461013d575b600080fd5b6100f761031f565b6040516101049190611009565b60405180910390f35b610127600480360381019061012291906110d3565b6103b1565b604051610134919061112e565b60405180910390f35b6101456103d4565b6040516101529190611158565b60405180910390f35b61017560048036038101906101709190611173565b6103de565b604051610182919061112e565b60405180910390f35b61019361040d565b6040516101a091906111e2565b60405180910390f35b6101c360048036038101906101be91906110d3565b610416565b6040516101d0919061112e565b60405180910390f35b6101f360048036038101906101ee91906110d3565b61044d565b005b61020f600480360381019061020a91906111fd565b6104eb565b60405161021c9190611158565b60405180910390f35b61022d610533565b60405161023a9190611009565b60405180910390f35b61025d600480360381019061025891906110d3565b6105c5565b60405161026a919061112e565b60405180910390f35b61028d600480360381019061028891906110d3565b61063c565b60405161029a919061112e565b60405180910390f35b6102bd60048036038101906102b891906113a8565b61065f565b005b6102d960048036038101906102d49190611417565b6107d0565b6040516102e69190611158565b60405180910390f35b610309600480360381019061030491906111fd565b610857565b604051610316919061112e565b60405180910390f35b60606003805461032e90611486565b80601f016020809104026020016040519081016040528092919081815260200182805461035a90611486565b80156103a75780601f1061037c576101008083540402835291602001916103a7565b820191906000526020600020905b81548152906001019060200180831161038a57829003601f168201915b5050505050905090565b6000806103bc610877565b90506103c981858561087f565b600191505092915050565b6000600254905090565b6000806103e9610877565b90506103f6858285610a4a565b610401858585610ad6565b60019150509392505050565b60006012905090565b600080610421610877565b905061044281858561043385896107d0565b61043d91906114e7565b61087f565b600191505092915050565b600560009054906101000a900473ffffffffffffffffffffffffffffffffffffffff1673ffffffffffffffffffffffffffffffffffffffff163373ffffffffffffffffffffffffffffffffffffffff16146104dd576040517f08c379a00000000000000000000000000000000000000000000000000000000081526004016104d490611589565b60405180910390fd5b6104e78282610d57565b5050565b60008060008373ffffffffffffffffffffffffffffffffffffffff1673ffffffffffffffffffffffffffffffffffffffff168152602001908152602001600020549050919050565b60606004805461054290611486565b80601f016020809104026020016040519081016040528092919081815260200182805461056e90611486565b80156105bb5780601f10610590576101008083540402835291602001916105bb565b820191906000526020600020905b81548152906001019060200180831161059e57829003601f168201915b5050505050905090565b6000806105d0610877565b905060006105de82866107d0565b905083811015610623576040517f08c379a000000000000000000000000000000000000000000000000000000000815260040161061a9061161b565b60405180910390fd5b610630828686840361087f565b60019250505092915050565b600080610647610877565b9050610654818585610ad6565b600191505092915050565b61066c8160065484610eb7565b6106ab576040517f08c379a00000000000000000000000000000000000000000000000000000000081526004016106a290611687565b60405180910390fd5b60001515600760008573ffffffffffffffffffffffffffffffffffffffff1673ffffffffffffffffffffffffffffffffffffffff16815260200190815260200160002060009054906101000a900460ff1615151461073e576040517f08c379a0000000000000000000000000000000000000000000000000000000008152600401610735906116f3565b60405180910390fd5b600061138890506001600760008673ffffffffffffffffffffffffffffffffffffffff1673ffffffffffffffffffffffffffffffffffffffff16815260200190815260200160002060006101000a81548160ff0219169083151502179055506107ca600560009054906101000a900473ffffffffffffffffffffffffffffffffffffffff168583610ad6565b50505050565b6000600160008473ffffffffffffffffffffffffffffffffffffffff1673ffffffffffffffffffffffffffffffffffffffff16815260200190815260200160002060008373ffffffffffffffffffffffffffffffffffffffff1673ffffffffffffffffffffffffffffffffffffffff16815260200190815260200160002054905092915050565b60076020528060005260406000206000915054906101000a900460ff1681565b600033905090565b600073ffffffffffffffffffffffffffffffffffffffff168373ffffffffffffffffffffffffffffffffffffffff1614156108ef576040517f08c379a00000000000000000000000000000000000000000000000000000000081526004016108e690611785565b60405180910390fd5b600073ffffffffffffffffffffffffffffffffffffffff168273ffffffffffffffffffffffffffffffffffffffff16141561095f576040517f08c379a000000000000000000000000000000000000000000000000000000000815260040161095690611817565b60405180910390fd5b80600160008573ffffffffffffffffffffffffffffffffffffffff1673ffffffffffffffffffffffffffffffffffffffff16815260200190815260200160002060008473ffffffffffffffffffffffffffffffffffffffff1673ffffffffffffffffffffffffffffffffffffffff168152602001908152602001600020819055508173ffffffffffffffffffffffffffffffffffffffff168373ffffffffffffffffffffffffffffffffffffffff167f8c5be1e5ebec7d5bd14f71427d1e84f3dd0314c0f7b2291e5b200ac8c7c3b92583604051610a3d9190611158565b60405180910390a3505050565b6000610a5684846107d0565b90507fffffffffffffffffffffffffffffffffffffffffffffffffffffffffffffffff8114610ad05781811015610ac2576040517f08c379a0000000000000000000000000000000000000000000000000000000008152600401610ab990611883565b60405180910390fd5b610acf848484840361087f565b5b50505050565b600073ffffffffffffffffffffffffffffffffffffffff168373ffffffffffffffffffffffffffffffffffffffff161415610b46576040517f08c379a0000000000000000000000000000000000000000000000000000000008152600401610b3d90611915565b60405180910390fd5b600073ffffffffffffffffffffffffffffffffffffffff168273ffffffffffffffffffffffffffffffffffffffff161415610bb6576040517f08c379a0000000000000000000000000000000000000000000000000000000008152600401610bad906119a7565b60405180910390fd5b610bc1838383610ece565b60008060008573ffffffffffffffffffffffffffffffffffffffff1673ffffffffffffffffffffffffffffffffffffffff16815260200190815260200160002054905081811015610c47576040517f08c379a0000000000000000000000000000000000000000000000000000000008152600401610c3e90611a39565b60405180910390fd5b8181036000808673ffffffffffffffffffffffffffffffffffffffff1673ffffffffffffffffffffffffffffffffffffffff16815260200190815260200160002081905550816000808573ffffffffffffffffffffffffffffffffffffffff1673ffffffffffffffffffffffffffffffffffffffff1681526020019081526020016000206000828254610cda91906114e7565b925050819055508273ffffffffffffffffffffffffffffffffffffffff168473ffffffffffffffffffffffffffffffffffffffff167fddf252ad1be2c89b69c2b068fc378daa952ba7f163c4a11628f55a4df523b3ef84604051610d3e9190611158565b60405180910390a3610d51848484610ed3565b50505050565b600073ffffffffffffffffffffffffffffffffffffffff168273ffffffffffffffffffffffffffffffffffffffff161415610dc7576040517f08c379a0000000000000000000000000000000000000000000000000000000008152600401610dbe90611aa5565b60405180910390fd5b610dd360008383610ece565b8060026000828254610de591906114e7565b92505081905550806000808473ffffffffffffffffffffffffffffffffffffffff1673ffffffffffffffffffffffffffffffffffffffff1681526020019081526020016000206000828254610e3a91906114e7565b925050819055508173ffffffffffffffffffffffffffffffffffffffff16600073ffffffffffffffffffffffffffffffffffffffff167fddf252ad1be2c89b69c2b068fc378daa952ba7f163c4a11628f55a4df523b3ef83604051610e9f9190611158565b60405180910390a3610eb360008383610ed3565b5050565b600082610ec48584610ed8565b1490509392505050565b505050565b505050565b60008082905060005b8451811015610f2357610f0e82868381518110610f0157610f00611ac5565b5b6020026020010151610f2e565b91508080610f1b90611af4565b915050610ee1565b508091505092915050565b6000818310610f4657610f418284610f59565b610f51565b610f508383610f59565b5b905092915050565b600082600052816020526040600020905092915050565b600081519050919050565b600082825260208201905092915050565b60005b83811015610faa578082015181840152602081019050610f8f565b83811115610fb9576000848401525b50505050565b6000601f19601f8301169050919050565b6000610fdb82610f70565b610fe58185610f7b565b9350610ff5818560208601610f8c565b610ffe81610fbf565b840191505092915050565b600060208201905081810360008301526110238184610fd0565b905092915050565b6000604051905090565b600080fd5b600080fd5b600073ffffffffffffffffffffffffffffffffffffffff82169050919050565b600061106a8261103f565b9050919050565b61107a8161105f565b811461108557600080fd5b50565b60008135905061109781611071565b92915050565b6000819050919050565b6110b08161109d565b81146110bb57600080fd5b50565b6000813590506110cd816110a7565b92915050565b600080604083850312156110ea576110e9611035565b5b60006110f885828601611088565b9250506020611109858286016110be565b9150509250929050565b60008115159050919050565b61112881611113565b82525050565b6000602082019050611143600083018461111f565b92915050565b6111528161109d565b82525050565b600060208201905061116d6000830184611149565b92915050565b60008060006060848603121561118c5761118b611035565b5b600061119a86828701611088565b93505060206111ab86828701611088565b92505060406111bc868287016110be565b9150509250925092565b600060ff82169050919050565b6111dc816111c6565b82525050565b60006020820190506111f760008301846111d3565b92915050565b60006020828403121561121357611212611035565b5b600061122184828501611088565b91505092915050565b6000819050919050565b61123d8161122a565b811461124857600080fd5b50565b60008135905061125a81611234565b92915050565b600080fd5b7f4e487b7100000000000000000000000000000000000000000000000000000000600052604160045260246000fd5b61129d82610fbf565b810181811067ffffffffffffffff821117156112bc576112bb611265565b5b80604052505050565b60006112cf61102b565b90506112db8282611294565b919050565b600067ffffffffffffffff8211156112fb576112fa611265565b5b602082029050602081019050919050565b600080fd5b600061132461131f846112e0565b6112c5565b905080838252602082019050602084028301858111156113475761134661130c565b5b835b81811015611370578061135c888261124b565b845260208401935050602081019050611349565b5050509392505050565b600082601f83011261138f5761138e611260565b5b813561139f848260208601611311565b91505092915050565b6000806000606084860312156113c1576113c0611035565b5b60006113cf86828701611088565b93505060206113e08682870161124b565b925050604084013567ffffffffffffffff8111156114015761140061103a565b5b61140d8682870161137a565b9150509250925092565b6000806040838503121561142e5761142d611035565b5b600061143c85828601611088565b925050602061144d85828601611088565b9150509250929050565b7f4e487b7100000000000000000000000000000000000000000000000000000000600052602260045260246000fd5b6000600282049050600182168061149e57607f821691505b602082108114156114b2576114b1611457565b5b50919050565b7f4e487b7100000000000000000000000000000000000000000000000000000000600052601160045260246000fd5b60006114f28261109d565b91506114fd8361109d565b9250827fffffffffffffffffffffffffffffffffffffffffffffffffffffffffffffffff03821115611532576115316114b8565b5b828201905092915050565b7f596f757220617265206e6f7420746865206f776e657200000000000000000000600082015250565b6000611573601683610f7b565b915061157e8261153d565b602082019050919050565b600060208201905081810360008301526115a281611566565b9050919050565b7f45524332303a2064656372656173656420616c6c6f77616e63652062656c6f7760008201527f207a65726f000000000000000000000000000000000000000000000000000000602082015250565b6000611605602583610f7b565b9150611610826115a9565b604082019050919050565b60006020820190508181036000830152611634816115f8565b9050919050565b7f4e6f7420616e204578636c7573697665204d656d626572000000000000000000600082015250565b6000611671601783610f7b565b915061167c8261163b565b602082019050919050565b600060208201905081810360008301526116a081611664565b9050919050565b7f416972546f6b656e20616c726561647920636c61696d65640000000000000000600082015250565b60006116dd601883610f7b565b91506116e8826116a7565b602082019050919050565b6000602082019050818103600083015261170c816116d0565b9050919050565b7f45524332303a20617070726f76652066726f6d20746865207a65726f2061646460008201527f7265737300000000000000000000000000000000000000000000000000000000602082015250565b600061176f602483610f7b565b915061177a82611713565b604082019050919050565b6000602082019050818103600083015261179e81611762565b9050919050565b7f45524332303a20617070726f766520746f20746865207a65726f20616464726560008201527f7373000000000000000000000000000000000000000000000000000000000000602082015250565b6000611801602283610f7b565b915061180c826117a5565b604082019050919050565b60006020820190508181036000830152611830816117f4565b9050919050565b7f45524332303a20696e73756666696369656e7420616c6c6f77616e6365000000600082015250565b600061186d601d83610f7b565b915061187882611837565b602082019050919050565b6000602082019050818103600083015261189c81611860565b9050919050565b7f45524332303a207472616e736665722066726f6d20746865207a65726f20616460008201527f6472657373000000000000000000000000000000000000000000000000000000602082015250565b60006118ff602583610f7b565b915061190a826118a3565b604082019050919050565b6000602082019050818103600083015261192e816118f2565b9050919050565b7f45524332303a207472616e7366657220746f20746865207a65726f206164647260008201527f6573730000000000000000000000000000000000000000000000000000000000602082015250565b6000611991602383610f7b565b915061199c82611935565b604082019050919050565b600060208201905081810360008301526119c081611984565b9050919050565b7f45524332303a207472616e7366657220616d6f756e742065786365656473206260008201527f616c616e63650000000000000000000000000000000000000000000000000000602082015250565b6000611a23602683610f7b565b9150611a2e826119c7565b604082019050919050565b60006020820190508181036000830152611a5281611a16565b9050919050565b7f45524332303a206d696e7420746f20746865207a65726f206164647265737300600082015250565b6000611a8f601f83610f7b565b9150611a9a82611a59565b602082019050919050565b60006020820190508181036000830152611abe81611a82565b9050919050565b7f4e487b7100000000000000000000000000000000000000000000000000000000600052603260045260246000fd5b6000611aff8261109d565b91507fffffffffffffffffffffffffffffffffffffffffffffffffffffffffffffffff821415611b3257611b316114b8565b5b60018201905091905056fea26469706673582212201cd58d216d1395e46c1f6ad6cca305f4770558b1253fb4467896c0aa40ccc4b764736f6c63430008090033",
  "linkReferences": {},
  "deployedLinkReferences": {}
}