{
  "_format": "hh-sol-artifact-1",
  "contractName": "AirToken",
  "sourceName": "contracts/AirToken.sol",
  "abi": [
    {
      "inputs": [],
      "stateMutability": "nonpayable",
      "type": "constructor"
    },
    {
      "anonymous": false,
      "inputs": [
        {
          "indexed": true,
          "internalType": "address",
          "name": "owner",
          "type": "address"
        },
        {
          "indexed": true,
          "internalType": "address",
          "name": "spender",
          "type": "address"
        },
        {
          "indexed": false,
          "internalType": "uint256",
          "name": "value",
          "type": "uint256"
        }
      ],
      "name": "Approval",
      "type": "event"
    },
    {
      "anonymous": false,
      "inputs": [
        {
          "indexed": true,
          "internalType": "address",
          "name": "from",
          "type": "address"
        },
        {
          "indexed": true,
          "internalType": "address",
          "name": "to",
          "type": "address"
        },
        {
          "indexed": false,
          "internalType": "uint256",
          "name": "value",
          "type": "uint256"
        }
      ],
      "name": "Transfer",
      "type": "event"
    },
    {
      "inputs": [
        {
          "internalType": "uint256",
          "name": "",
          "type": "uint256"
        }
      ],
      "name": "_allotedAmount",
      "outputs": [
        {
          "internalType": "uint256",
          "name": "",
          "type": "uint256"
        }
      ],
      "stateMutability": "view",
      "type": "function"
    },
    {
      "inputs": [
        {
          "internalType": "address",
          "name": "",
          "type": "address"
        }
      ],
      "name": "_claimed",
      "outputs": [
        {
          "internalType": "bool",
          "name": "",
          "type": "bool"
        }
      ],
      "stateMutability": "view",
      "type": "function"
    },
    {
      "inputs": [
        {
          "internalType": "uint256",
          "name": "",
          "type": "uint256"
        }
      ],
      "name": "_whiteListAddress",
      "outputs": [
        {
          "internalType": "address",
          "name": "",
          "type": "address"
        }
      ],
      "stateMutability": "view",
      "type": "function"
    },
    {
      "inputs": [
        {
          "internalType": "address",
          "name": "_add",
          "type": "address"
        },
        {
          "internalType": "uint256",
          "name": "_amt",
          "type": "uint256"
        }
      ],
      "name": "addWhiteListAddress",
      "outputs": [],
      "stateMutability": "nonpayable",
      "type": "function"
    },
    {
      "inputs": [
        {
          "internalType": "address",
          "name": "owner",
          "type": "address"
        },
        {
          "internalType": "address",
          "name": "spender",
          "type": "address"
        }
      ],
      "name": "allowance",
      "outputs": [
        {
          "internalType": "uint256",
          "name": "",
          "type": "uint256"
        }
      ],
      "stateMutability": "view",
      "type": "function"
    },
    {
      "inputs": [
        {
          "internalType": "address",
          "name": "spender",
          "type": "address"
        },
        {
          "internalType": "uint256",
          "name": "amount",
          "type": "uint256"
        }
      ],
      "name": "approve",
      "outputs": [
        {
          "internalType": "bool",
          "name": "",
          "type": "bool"
        }
      ],
      "stateMutability": "nonpayable",
      "type": "function"
    },
    {
      "inputs": [
        {
          "internalType": "address",
          "name": "account",
          "type": "address"
        }
      ],
      "name": "balanceOf",
      "outputs": [
        {
          "internalType": "uint256",
          "name": "",
          "type": "uint256"
        }
      ],
      "stateMutability": "view",
      "type": "function"
    },
    {
      "inputs": [
        {
          "internalType": "address",
          "name": "_claimer",
          "type": "address"
        }
      ],
      "name": "claim",
      "outputs": [],
      "stateMutability": "nonpayable",
      "type": "function"
    },
    {
      "inputs": [],
      "name": "decimals",
      "outputs": [
        {
          "internalType": "uint8",
          "name": "",
          "type": "uint8"
        }
      ],
      "stateMutability": "view",
      "type": "function"
    },
    {
      "inputs": [
        {
          "internalType": "address",
          "name": "spender",
          "type": "address"
        },
        {
          "internalType": "uint256",
          "name": "subtractedValue",
          "type": "uint256"
        }
      ],
      "name": "decreaseAllowance",
      "outputs": [
        {
          "internalType": "bool",
          "name": "",
          "type": "bool"
        }
      ],
      "stateMutability": "nonpayable",
      "type": "function"
    },
    {
      "inputs": [
        {
          "internalType": "address",
          "name": "spender",
          "type": "address"
        },
        {
          "internalType": "uint256",
          "name": "addedValue",
          "type": "uint256"
        }
      ],
      "name": "increaseAllowance",
      "outputs": [
        {
          "internalType": "bool",
          "name": "",
          "type": "bool"
        }
      ],
      "stateMutability": "nonpayable",
      "type": "function"
    },
    {
      "inputs": [],
      "name": "name",
      "outputs": [
        {
          "internalType": "string",
          "name": "",
          "type": "string"
        }
      ],
      "stateMutability": "view",
      "type": "function"
    },
    {
      "inputs": [],
      "name": "symbol",
      "outputs": [
        {
          "internalType": "string",
          "name": "",
          "type": "string"
        }
      ],
      "stateMutability": "view",
      "type": "function"
    },
    {
      "inputs": [],
      "name": "totalSupply",
      "outputs": [
        {
          "internalType": "uint256",
          "name": "",
          "type": "uint256"
        }
      ],
      "stateMutability": "view",
      "type": "function"
    },
    {
      "inputs": [
        {
          "internalType": "address",
          "name": "to",
          "type": "address"
        },
        {
          "internalType": "uint256",
          "name": "amount",
          "type": "uint256"
        }
      ],
      "name": "transfer",
      "outputs": [
        {
          "internalType": "bool",
          "name": "",
          "type": "bool"
        }
      ],
      "stateMutability": "nonpayable",
      "type": "function"
    },
    {
      "inputs": [
        {
          "internalType": "address",
          "name": "from",
          "type": "address"
        },
        {
          "internalType": "address",
          "name": "to",
          "type": "address"
        },
        {
          "internalType": "uint256",
          "name": "amount",
          "type": "uint256"
        }
      ],
      "name": "transferFrom",
      "outputs": [
        {
          "internalType": "bool",
          "name": "",
          "type": "bool"
        }
      ],
      "stateMutability": "nonpayable",
      "type": "function"
    }
  ],
  "bytecode": "0x60806040523480156200001157600080fd5b506040518060400160405280600881526020017f416972546f6b656e0000000000000000000000000000000000000000000000008152506040518060400160405280600381526020017f41544b0000000000000000000000000000000000000000000000000000000000815250816003908051906020019062000096929190620002e5565b508060049080519060200190620000af929190620002e5565b50505033600560006101000a81548173ffffffffffffffffffffffffffffffffffffffff021916908373ffffffffffffffffffffffffffffffffffffffff16021790555062000153600560009054906101000a900473ffffffffffffffffffffffffffffffffffffffff166200012a6200015960201b60201c565b600a6200013891906200052f565b61c35062000147919062000580565b6200016260201b60201c565b62000754565b60006012905090565b600073ffffffffffffffffffffffffffffffffffffffff168273ffffffffffffffffffffffffffffffffffffffff161415620001d5576040517f08c379a0000000000000000000000000000000000000000000000000000000008152600401620001cc9062000642565b60405180910390fd5b620001e960008383620002db60201b60201c565b8060026000828254620001fd919062000664565b92505081905550806000808473ffffffffffffffffffffffffffffffffffffffff1673ffffffffffffffffffffffffffffffffffffffff168152602001908152602001600020600082825462000254919062000664565b925050819055508173ffffffffffffffffffffffffffffffffffffffff16600073ffffffffffffffffffffffffffffffffffffffff167fddf252ad1be2c89b69c2b068fc378daa952ba7f163c4a11628f55a4df523b3ef83604051620002bb9190620006d2565b60405180910390a3620002d760008383620002e060201b60201c565b5050565b505050565b505050565b828054620002f3906200071e565b90600052602060002090601f01602090048101928262000317576000855562000363565b82601f106200033257805160ff191683800117855562000363565b8280016001018555821562000363579182015b828111156200036257825182559160200191906001019062000345565b5b50905062000372919062000376565b5090565b5b808211156200039157600081600090555060010162000377565b5090565b7f4e487b7100000000000000000000000000000000000000000000000000000000600052601160045260246000fd5b60008160011c9050919050565b6000808291508390505b60018511156200042357808604811115620003fb57620003fa62000395565b5b60018516156200040b5780820291505b80810290506200041b85620003c4565b9450620003db565b94509492505050565b6000826200043e576001905062000511565b816200044e576000905062000511565b81600181146200046757600281146200047257620004a8565b600191505062000511565b60ff84111562000487576200048662000395565b5b8360020a915084821115620004a157620004a062000395565b5b5062000511565b5060208310610133831016604e8410600b8410161715620004e25782820a905083811115620004dc57620004db62000395565b5b62000511565b620004f18484846001620003d1565b925090508184048111156200050b576200050a62000395565b5b81810290505b9392505050565b6000819050919050565b600060ff82169050919050565b60006200053c8262000518565b9150620005498362000522565b9250620005787fffffffffffffffffffffffffffffffffffffffffffffffffffffffffffffffff84846200042c565b905092915050565b60006200058d8262000518565b91506200059a8362000518565b9250817fffffffffffffffffffffffffffffffffffffffffffffffffffffffffffffffff0483118215151615620005d657620005d562000395565b5b828202905092915050565b600082825260208201905092915050565b7f45524332303a206d696e7420746f20746865207a65726f206164647265737300600082015250565b60006200062a601f83620005e1565b91506200063782620005f2565b602082019050919050565b600060208201905081810360008301526200065d816200061b565b9050919050565b6000620006718262000518565b91506200067e8362000518565b9250827fffffffffffffffffffffffffffffffffffffffffffffffffffffffffffffffff03821115620006b657620006b562000395565b5b828201905092915050565b620006cc8162000518565b82525050565b6000602082019050620006e96000830184620006c1565b92915050565b7f4e487b7100000000000000000000000000000000000000000000000000000000600052602260045260246000fd5b600060028204905060018216806200073757607f821691505b602082108114156200074e576200074d620006ef565b5b50919050565b61197880620007646000396000f3fe608060405234801561001057600080fd5b50600436106101005760003560e01c8063313ce56711610097578063a457c2d711610066578063a457c2d7146102d5578063a9059cbb14610305578063dd62ed3e14610335578063dd896a1c1461036557610100565b8063313ce56714610239578063395093511461025757806370a082311461028757806395d89b41146102b757610100565b806318160ddd116100d357806318160ddd1461019f5780631e83409a146101bd57806323b872dd146101d95780632e5995181461020957610100565b806305fe7e9e1461010557806306fdde0314610135578063095ea7b31461015357806311c4f2b314610183575b600080fd5b61011f600480360381019061011a9190610fc1565b610395565b60405161012c9190610ffd565b60405180910390f35b61013d6103b9565b60405161014a91906110b1565b60405180910390f35b61016d60048036038101906101689190611131565b61044b565b60405161017a919061118c565b60405180910390f35b61019d60048036038101906101989190611131565b61046e565b005b6101a7610542565b6040516101b49190610ffd565b60405180910390f35b6101d760048036038101906101d291906111a7565b61054c565b005b6101f360048036038101906101ee91906111d4565b6107d3565b604051610200919061118c565b60405180910390f35b610223600480360381019061021e9190610fc1565b610802565b6040516102309190611236565b60405180910390f35b610241610841565b60405161024e919061126d565b60405180910390f35b610271600480360381019061026c9190611131565b61084a565b60405161027e919061118c565b60405180910390f35b6102a1600480360381019061029c91906111a7565b610881565b6040516102ae9190610ffd565b60405180910390f35b6102bf6108c9565b6040516102cc91906110b1565b60405180910390f35b6102ef60048036038101906102ea9190611131565b61095b565b6040516102fc919061118c565b60405180910390f35b61031f600480360381019061031a9190611131565b6109d2565b60405161032c919061118c565b60405180910390f35b61034f600480360381019061034a9190611288565b6109f5565b60405161035c9190610ffd565b60405180910390f35b61037f600480360381019061037a91906111a7565b610a7c565b60405161038c919061118c565b60405180910390f35b600681815481106103a557600080fd5b906000526020600020016000915090505481565b6060600380546103c8906112f7565b80601f01602080910402602001604051908101604052809291908181526020018280546103f4906112f7565b80156104415780601f1061041657610100808354040283529160200191610441565b820191906000526020600020905b81548152906001019060200180831161042457829003601f168201915b5050505050905090565b600080610456610a9c565b9050610463818585610aa4565b600191505092915050565b60008114156104b2576040517f08c379a00000000000000000000000000000000000000000000000000000000081526004016104a990611375565b60405180910390fd5b6007829080600181540180825580915050600190039060005260206000200160009091909190916101000a81548173ffffffffffffffffffffffffffffffffffffffff021916908373ffffffffffffffffffffffffffffffffffffffff16021790555060068190806001815401808255809150506001900390600052602060002001600090919091909150555050565b6000600254905090565b60001515600860008373ffffffffffffffffffffffffffffffffffffffff1673ffffffffffffffffffffffffffffffffffffffff16815260200190815260200160002060009054906101000a900460ff161515146105df576040517f08c379a00000000000000000000000000000000000000000000000000000000081526004016105d6906113e1565b60405180910390fd5b60008060005b60078054905081101561067b578373ffffffffffffffffffffffffffffffffffffffff166007828154811061061d5761061c611401565b5b9060005260206000200160009054906101000a900473ffffffffffffffffffffffffffffffffffffffff1673ffffffffffffffffffffffffffffffffffffffff161415610668578092505b80806106739061145f565b9150506105e5565b50600782815481106106905761068f611401565b5b9060005260206000200160009054906101000a900473ffffffffffffffffffffffffffffffffffffffff1673ffffffffffffffffffffffffffffffffffffffff168373ffffffffffffffffffffffffffffffffffffffff1614610728576040517f08c379a000000000000000000000000000000000000000000000000000000000815260040161071f906114f4565b60405180910390fd5b6001600860008573ffffffffffffffffffffffffffffffffffffffff1673ffffffffffffffffffffffffffffffffffffffff16815260200190815260200160002060006101000a81548160ff0219169083151502179055506006828154811061079457610793611401565b5b906000526020600020015490506107ce600560009054906101000a900473ffffffffffffffffffffffffffffffffffffffff168483610c6f565b505050565b6000806107de610a9c565b90506107eb858285610ef0565b6107f6858585610c6f565b60019150509392505050565b6007818154811061081257600080fd5b906000526020600020016000915054906101000a900473ffffffffffffffffffffffffffffffffffffffff1681565b60006012905090565b600080610855610a9c565b905061087681858561086785896109f5565b6108719190611514565b610aa4565b600191505092915050565b60008060008373ffffffffffffffffffffffffffffffffffffffff1673ffffffffffffffffffffffffffffffffffffffff168152602001908152602001600020549050919050565b6060600480546108d8906112f7565b80601f0160208091040260200160405190810160405280929190818152602001828054610904906112f7565b80156109515780601f1061092657610100808354040283529160200191610951565b820191906000526020600020905b81548152906001019060200180831161093457829003601f168201915b5050505050905090565b600080610966610a9c565b9050600061097482866109f5565b9050838110156109b9576040517f08c379a00000000000000000000000000000000000000000000000000000000081526004016109b0906115dc565b60405180910390fd5b6109c68286868403610aa4565b60019250505092915050565b6000806109dd610a9c565b90506109ea818585610c6f565b600191505092915050565b6000600160008473ffffffffffffffffffffffffffffffffffffffff1673ffffffffffffffffffffffffffffffffffffffff16815260200190815260200160002060008373ffffffffffffffffffffffffffffffffffffffff1673ffffffffffffffffffffffffffffffffffffffff16815260200190815260200160002054905092915050565b60086020528060005260406000206000915054906101000a900460ff1681565b600033905090565b600073ffffffffffffffffffffffffffffffffffffffff168373ffffffffffffffffffffffffffffffffffffffff161415610b14576040517f08c379a0000000000000000000000000000000000000000000000000000000008152600401610b0b9061166e565b60405180910390fd5b600073ffffffffffffffffffffffffffffffffffffffff168273ffffffffffffffffffffffffffffffffffffffff161415610b84576040517f08c379a0000000000000000000000000000000000000000000000000000000008152600401610b7b90611700565b60405180910390fd5b80600160008573ffffffffffffffffffffffffffffffffffffffff1673ffffffffffffffffffffffffffffffffffffffff16815260200190815260200160002060008473ffffffffffffffffffffffffffffffffffffffff1673ffffffffffffffffffffffffffffffffffffffff168152602001908152602001600020819055508173ffffffffffffffffffffffffffffffffffffffff168373ffffffffffffffffffffffffffffffffffffffff167f8c5be1e5ebec7d5bd14f71427d1e84f3dd0314c0f7b2291e5b200ac8c7c3b92583604051610c629190610ffd565b60405180910390a3505050565b600073ffffffffffffffffffffffffffffffffffffffff168373ffffffffffffffffffffffffffffffffffffffff161415610cdf576040517f08c379a0000000000000000000000000000000000000000000000000000000008152600401610cd690611792565b60405180910390fd5b600073ffffffffffffffffffffffffffffffffffffffff168273ffffffffffffffffffffffffffffffffffffffff161415610d4f576040517f08c379a0000000000000000000000000000000000000000000000000000000008152600401610d4690611824565b60405180910390fd5b610d5a838383610f7c565b60008060008573ffffffffffffffffffffffffffffffffffffffff1673ffffffffffffffffffffffffffffffffffffffff16815260200190815260200160002054905081811015610de0576040517f08c379a0000000000000000000000000000000000000000000000000000000008152600401610dd7906118b6565b60405180910390fd5b8181036000808673ffffffffffffffffffffffffffffffffffffffff1673ffffffffffffffffffffffffffffffffffffffff16815260200190815260200160002081905550816000808573ffffffffffffffffffffffffffffffffffffffff1673ffffffffffffffffffffffffffffffffffffffff1681526020019081526020016000206000828254610e739190611514565b925050819055508273ffffffffffffffffffffffffffffffffffffffff168473ffffffffffffffffffffffffffffffffffffffff167fddf252ad1be2c89b69c2b068fc378daa952ba7f163c4a11628f55a4df523b3ef84604051610ed79190610ffd565b60405180910390a3610eea848484610f81565b50505050565b6000610efc84846109f5565b90507fffffffffffffffffffffffffffffffffffffffffffffffffffffffffffffffff8114610f765781811015610f68576040517f08c379a0000000000000000000000000000000000000000000000000000000008152600401610f5f90611922565b60405180910390fd5b610f758484848403610aa4565b5b50505050565b505050565b505050565b600080fd5b6000819050919050565b610f9e81610f8b565b8114610fa957600080fd5b50565b600081359050610fbb81610f95565b92915050565b600060208284031215610fd757610fd6610f86565b5b6000610fe584828501610fac565b91505092915050565b610ff781610f8b565b82525050565b60006020820190506110126000830184610fee565b92915050565b600081519050919050565b600082825260208201905092915050565b60005b83811015611052578082015181840152602081019050611037565b83811115611061576000848401525b50505050565b6000601f19601f8301169050919050565b600061108382611018565b61108d8185611023565b935061109d818560208601611034565b6110a681611067565b840191505092915050565b600060208201905081810360008301526110cb8184611078565b905092915050565b600073ffffffffffffffffffffffffffffffffffffffff82169050919050565b60006110fe826110d3565b9050919050565b61110e816110f3565b811461111957600080fd5b50565b60008135905061112b81611105565b92915050565b6000806040838503121561114857611147610f86565b5b60006111568582860161111c565b925050602061116785828601610fac565b9150509250929050565b60008115159050919050565b61118681611171565b82525050565b60006020820190506111a1600083018461117d565b92915050565b6000602082840312156111bd576111bc610f86565b5b60006111cb8482850161111c565b91505092915050565b6000806000606084860312156111ed576111ec610f86565b5b60006111fb8682870161111c565b935050602061120c8682870161111c565b925050604061121d86828701610fac565b9150509250925092565b611230816110f3565b82525050565b600060208201905061124b6000830184611227565b92915050565b600060ff82169050919050565b61126781611251565b82525050565b6000602082019050611282600083018461125e565b92915050565b6000806040838503121561129f5761129e610f86565b5b60006112ad8582860161111c565b92505060206112be8582860161111c565b9150509250929050565b7f4e487b7100000000000000000000000000000000000000000000000000000000600052602260045260246000fd5b6000600282049050600182168061130f57607f821691505b60208210811415611323576113226112c8565b5b50919050565b7f416d6f756e74206973207a65726f000000000000000000000000000000000000600082015250565b600061135f600e83611023565b915061136a82611329565b602082019050919050565b6000602082019050818103600083015261138e81611352565b9050919050565b7f416972546f6b656e20616c726561647920636c61696d65640000000000000000600082015250565b60006113cb601883611023565b91506113d682611395565b602082019050919050565b600060208201905081810360008301526113fa816113be565b9050919050565b7f4e487b7100000000000000000000000000000000000000000000000000000000600052603260045260246000fd5b7f4e487b7100000000000000000000000000000000000000000000000000000000600052601160045260246000fd5b600061146a82610f8b565b91507fffffffffffffffffffffffffffffffffffffffffffffffffffffffffffffffff82141561149d5761149c611430565b5b600182019050919050565b7f4e6f74206578636c7573697665206d656d626572000000000000000000000000600082015250565b60006114de601483611023565b91506114e9826114a8565b602082019050919050565b6000602082019050818103600083015261150d816114d1565b9050919050565b600061151f82610f8b565b915061152a83610f8b565b9250827fffffffffffffffffffffffffffffffffffffffffffffffffffffffffffffffff0382111561155f5761155e611430565b5b828201905092915050565b7f45524332303a2064656372656173656420616c6c6f77616e63652062656c6f7760008201527f207a65726f000000000000000000000000000000000000000000000000000000602082015250565b60006115c6602583611023565b91506115d18261156a565b604082019050919050565b600060208201905081810360008301526115f5816115b9565b9050919050565b7f45524332303a20617070726f76652066726f6d20746865207a65726f2061646460008201527f7265737300000000000000000000000000000000000000000000000000000000602082015250565b6000611658602483611023565b9150611663826115fc565b604082019050919050565b600060208201905081810360008301526116878161164b565b9050919050565b7f45524332303a20617070726f766520746f20746865207a65726f20616464726560008201527f7373000000000000000000000000000000000000000000000000000000000000602082015250565b60006116ea602283611023565b91506116f58261168e565b604082019050919050565b60006020820190508181036000830152611719816116dd565b9050919050565b7f45524332303a207472616e736665722066726f6d20746865207a65726f20616460008201527f6472657373000000000000000000000000000000000000000000000000000000602082015250565b600061177c602583611023565b915061178782611720565b604082019050919050565b600060208201905081810360008301526117ab8161176f565b9050919050565b7f45524332303a207472616e7366657220746f20746865207a65726f206164647260008201527f6573730000000000000000000000000000000000000000000000000000000000602082015250565b600061180e602383611023565b9150611819826117b2565b604082019050919050565b6000602082019050818103600083015261183d81611801565b9050919050565b7f45524332303a207472616e7366657220616d6f756e742065786365656473206260008201527f616c616e63650000000000000000000000000000000000000000000000000000602082015250565b60006118a0602683611023565b91506118ab82611844565b604082019050919050565b600060208201905081810360008301526118cf81611893565b9050919050565b7f45524332303a20696e73756666696369656e7420616c6c6f77616e6365000000600082015250565b600061190c601d83611023565b9150611917826118d6565b602082019050919050565b6000602082019050818103600083015261193b816118ff565b905091905056fea2646970667358221220bec369f2e0b7d78885a31304b00a8068f2a14315187e78d8adec2694d0e65d6964736f6c63430008090033",
  "linkReferences": {},
  "deployedLinkReferences": {}
}